{"abi":[{"type":"constructor","inputs":[{"name":"_target","type":"address","internalType":"contract ITargetContract"}],"stateMutability":"nonpayable"},{"type":"receive","stateMutability":"payable"},{"type":"function","name":"target","inputs":[],"outputs":[{"name":"","type":"address","internalType":"contract ITargetContract"}],"stateMutability":"view"},{"type":"function","name":"toFallback","inputs":[{"name":"amount","type":"uint256","internalType":"uint256"}],"outputs":[],"stateMutability":"payable"}],"bytecode":{"object":"0x608060405234801561001057600080fd5b506040516105ba3803806105ba83398101604081905261002f91610054565b600f80546001600160a01b0319166001600160a01b0392909216919091179055610084565b60006020828403121561006657600080fd5b81516001600160a01b038116811461007d57600080fd5b9392505050565b610527806100936000396000f3fe60806040526004361061002d5760003560e01c8063030428bf14610039578063d4b839921461004e57600080fd5b3661003457005b600080fd5b61004c6100473660046103ea565b61008a565b005b34801561005a57600080fd5b50600f5461006e906001600160a01b031681565b6040516001600160a01b03909116815260200160405180910390f35b6100968160004761013b565b600f546040519192506000916001600160a01b039091169083908381818185875af1925050503d80600081146100e8576040519150601f19603f3d011682016040523d82523d6000602084013e6100ed565b606091505b50509050806101375760405162461bcd60e51b81526020600482015260116024820152701cd95b99081d985b1d594819985a5b1959607a1b60448201526064015b60405180910390fd5b5050565b600061014884848461017f565b90506101786040518060400160405280600c81526020016b109bdd5b990814995cdd5b1d60a21b81525082610343565b9392505050565b6000818311156101f75760405162461bcd60e51b815260206004820152603e60248201527f5374645574696c7320626f756e642875696e743235362c75696e743235362c7560448201527f696e74323536293a204d6178206973206c657373207468616e206d696e2e0000606482015260840161012e565b8284101580156102075750818411155b15610213575082610178565b600061021f8484610419565b61022a906001610430565b90506003851115801561023c57508481115b156102535761024b8585610430565b915050610178565b6102606003600019610419565b8510158015610279575061027685600019610419565b81115b156102945761028a85600019610419565b61024b9084610419565b828511156102ea5760006102a88487610419565b905060006102b68383610448565b9050806000036102cb57849350505050610178565b60016102d78288610430565b6102e19190610419565b9350505061033b565b8385101561033b5760006102fe8686610419565b9050600061030c8383610448565b90508060000361032157859350505050610178565b61032b8186610419565b610336906001610430565b935050505b509392505050565b60006a636f6e736f6c652e6c6f676001600160a01b0316838360405160240161036d92919061049a565b60408051601f198184030181529181526020820180516001600160e01b0316632d839cb360e21b179052516103a291906104d5565b600060405180830381855afa9150503d80600081146103dd576040519150601f19603f3d011682016040523d82523d6000602084013e6103e2565b606091505b505050505050565b6000602082840312156103fc57600080fd5b5035919050565b634e487b7160e01b600052601160045260246000fd5b60008282101561042b5761042b610403565b500390565b6000821982111561044357610443610403565b500190565b60008261046557634e487b7160e01b600052601260045260246000fd5b500690565b60005b8381101561048557818101518382015260200161046d565b83811115610494576000848401525b50505050565b60408152600083518060408401526104b981606085016020880161046a565b602083019390935250601f91909101601f191601606001919050565b600082516104e781846020870161046a565b919091019291505056fea26469706673582212206e6b3b58db91adf652198c022bd3e6b7b876a2a9339a4a889577b3ad4b636fdd64736f6c634300080d0033","linkReferences":{}},"methodIdentifiers":{"target()":"d4b83992","toFallback(uint256)":"030428bf"},"id":18}